{
	"data": {
		"bytecode": {
			"linkReferences": {},
			"object": "608060405234801561001057600080fd5b50610a0b806100206000396000f3fe608060405234801561001057600080fd5b50600436106100415760003560e01c80634aaf4a12146100465780638ccd5ed814610076578063b66fb09014610092575b600080fd5b610060600480360381019061005b9190610481565b6100c3565b60405161006d9190610549565b60405180910390f35b610090600480360381019061008b919061056b565b610176565b005b6100ac60048036038101906100a79190610481565b610258565b6040516100ba9291906105fe565b60405180910390f35b60606000826040516100d5919061066a565b908152602001604051809103902060010180546100f1906106b0565b80601f016020809104026020016040519081016040528092919081815260200182805461011d906106b0565b801561016a5780601f1061013f5761010080835404028352916020019161016a565b820191906000526020600020905b81548152906001019060200180831161014d57829003601f168201915b50505050509050919050565b6001151560008260405161018a919061066a565b908152602001604051809103902060000160009054906101000a900460ff161515146101eb576040517f08c379a00000000000000000000000000000000000000000000000000000000081526004016101e29061072d565b60405180910390fd5b816000826040516101fc919061066a565b908152602001604051809103902060010190816102199190610903565b50600160008260405161022c919061066a565b908152602001604051809103902060000160006101000a81548160ff0219169083151502179055505050565b6000818051602081018201805184825260208301602085012081835280955050505050506000915090508060000160009054906101000a900460ff16908060010180546102a4906106b0565b80601f01602080910402602001604051908101604052809291908181526020018280546102d0906106b0565b801561031d5780601f106102f25761010080835404028352916020019161031d565b820191906000526020600020905b81548152906001019060200180831161030057829003601f168201915b5050505050905082565b6000604051905090565b600080fd5b600080fd5b600080fd5b600080fd5b6000601f19601f8301169050919050565b7f4e487b7100000000000000000000000000000000000000000000000000000000600052604160045260246000fd5b61038e82610345565b810181811067ffffffffffffffff821117156103ad576103ac610356565b5b80604052505050565b60006103c0610327565b90506103cc8282610385565b919050565b600067ffffffffffffffff8211156103ec576103eb610356565b5b6103f582610345565b9050602081019050919050565b82818337600083830152505050565b600061042461041f846103d1565b6103b6565b9050828152602081018484840111156104405761043f610340565b5b61044b848285610402565b509392505050565b600082601f8301126104685761046761033b565b5b8135610478848260208601610411565b91505092915050565b60006020828403121561049757610496610331565b5b600082013567ffffffffffffffff8111156104b5576104b4610336565b5b6104c184828501610453565b91505092915050565b600081519050919050565b600082825260208201905092915050565b60005b838110156105045780820151818401526020810190506104e9565b60008484015250505050565b600061051b826104ca565b61052581856104d5565b93506105358185602086016104e6565b61053e81610345565b840191505092915050565b600060208201905081810360008301526105638184610510565b905092915050565b6000806040838503121561058257610581610331565b5b600083013567ffffffffffffffff8111156105a05761059f610336565b5b6105ac85828601610453565b925050602083013567ffffffffffffffff8111156105cd576105cc610336565b5b6105d985828601610453565b9150509250929050565b60008115159050919050565b6105f8816105e3565b82525050565b600060408201905061061360008301856105ef565b81810360208301526106258184610510565b90509392505050565b600081905092915050565b6000610644826104ca565b61064e818561062e565b935061065e8185602086016104e6565b80840191505092915050565b60006106768284610639565b915081905092915050565b7f4e487b7100000000000000000000000000000000000000000000000000000000600052602260045260246000fd5b600060028204905060018216806106c857607f821691505b6020821081036106db576106da610681565b5b50919050565b7f416c72656164792053656c6c0000000000000000000000000000000000000000600082015250565b6000610717600c836104d5565b9150610722826106e1565b602082019050919050565b600060208201905081810360008301526107468161070a565b9050919050565b60008190508160005260206000209050919050565b60006020601f8301049050919050565b600082821b905092915050565b6000600883026107af7fffffffffffffffffffffffffffffffffffffffffffffffffffffffffffffffff82610772565b6107b98683610772565b95508019841693508086168417925050509392505050565b6000819050919050565b6000819050919050565b60006108006107fb6107f6846107d1565b6107db565b6107d1565b9050919050565b6000819050919050565b61081a836107e5565b61082e61082682610807565b84845461077f565b825550505050565b600090565b610843610836565b61084e818484610811565b505050565b5b818110156108725761086760008261083b565b600181019050610854565b5050565b601f8211156108b7576108888161074d565b61089184610762565b810160208510156108a0578190505b6108b46108ac85610762565b830182610853565b50505b505050565b600082821c905092915050565b60006108da600019846008026108bc565b1980831691505092915050565b60006108f383836108c9565b9150826002028217905092915050565b61090c826104ca565b67ffffffffffffffff81111561092557610924610356565b5b61092f82546106b0565b61093a828285610876565b600060209050601f83116001811461096d576000841561095b578287015190505b61096585826108e7565b8655506109cd565b601f19841661097b8661074d565b60005b828110156109a35784890151825560018201915060208501945060208101905061097e565b868310156109c057848901516109bc601f8916826108c9565b8355505b6001600288020188555050505b50505050505056fea26469706673582212206c1fd9615d11bbe557f8e66b2bbe26b90ce8207f733ad8227dd060393b3896d164736f6c63430008120033",
			"opcodes": "PUSH1 0x80 PUSH1 0x40 MSTORE CALLVALUE DUP1 ISZERO PUSH2 0x10 JUMPI PUSH1 0x0 DUP1 REVERT JUMPDEST POP PUSH2 0xA0B DUP1 PUSH2 0x20 PUSH1 0x0 CODECOPY PUSH1 0x0 RETURN INVALID PUSH1 0x80 PUSH1 0x40 MSTORE CALLVALUE DUP1 ISZERO PUSH2 0x10 JUMPI PUSH1 0x0 DUP1 REVERT JUMPDEST POP PUSH1 0x4 CALLDATASIZE LT PUSH2 0x41 JUMPI PUSH1 0x0 CALLDATALOAD PUSH1 0xE0 SHR DUP1 PUSH4 0x4AAF4A12 EQ PUSH2 0x46 JUMPI DUP1 PUSH4 0x8CCD5ED8 EQ PUSH2 0x76 JUMPI DUP1 PUSH4 0xB66FB090 EQ PUSH2 0x92 JUMPI JUMPDEST PUSH1 0x0 DUP1 REVERT JUMPDEST PUSH2 0x60 PUSH1 0x4 DUP1 CALLDATASIZE SUB DUP2 ADD SWAP1 PUSH2 0x5B SWAP2 SWAP1 PUSH2 0x481 JUMP JUMPDEST PUSH2 0xC3 JUMP JUMPDEST PUSH1 0x40 MLOAD PUSH2 0x6D SWAP2 SWAP1 PUSH2 0x549 JUMP JUMPDEST PUSH1 0x40 MLOAD DUP1 SWAP2 SUB SWAP1 RETURN JUMPDEST PUSH2 0x90 PUSH1 0x4 DUP1 CALLDATASIZE SUB DUP2 ADD SWAP1 PUSH2 0x8B SWAP2 SWAP1 PUSH2 0x56B JUMP JUMPDEST PUSH2 0x176 JUMP JUMPDEST STOP JUMPDEST PUSH2 0xAC PUSH1 0x4 DUP1 CALLDATASIZE SUB DUP2 ADD SWAP1 PUSH2 0xA7 SWAP2 SWAP1 PUSH2 0x481 JUMP JUMPDEST PUSH2 0x258 JUMP JUMPDEST PUSH1 0x40 MLOAD PUSH2 0xBA SWAP3 SWAP2 SWAP1 PUSH2 0x5FE JUMP JUMPDEST PUSH1 0x40 MLOAD DUP1 SWAP2 SUB SWAP1 RETURN JUMPDEST PUSH1 0x60 PUSH1 0x0 DUP3 PUSH1 0x40 MLOAD PUSH2 0xD5 SWAP2 SWAP1 PUSH2 0x66A JUMP JUMPDEST SWAP1 DUP2 MSTORE PUSH1 0x20 ADD PUSH1 0x40 MLOAD DUP1 SWAP2 SUB SWAP1 KECCAK256 PUSH1 0x1 ADD DUP1 SLOAD PUSH2 0xF1 SWAP1 PUSH2 0x6B0 JUMP JUMPDEST DUP1 PUSH1 0x1F ADD PUSH1 0x20 DUP1 SWAP2 DIV MUL PUSH1 0x20 ADD PUSH1 0x40 MLOAD SWAP1 DUP2 ADD PUSH1 0x40 MSTORE DUP1 SWAP3 SWAP2 SWAP1 DUP2 DUP2 MSTORE PUSH1 0x20 ADD DUP3 DUP1 SLOAD PUSH2 0x11D SWAP1 PUSH2 0x6B0 JUMP JUMPDEST DUP1 ISZERO PUSH2 0x16A JUMPI DUP1 PUSH1 0x1F LT PUSH2 0x13F JUMPI PUSH2 0x100 DUP1 DUP4 SLOAD DIV MUL DUP4 MSTORE SWAP2 PUSH1 0x20 ADD SWAP2 PUSH2 0x16A JUMP JUMPDEST DUP3 ADD SWAP2 SWAP1 PUSH1 0x0 MSTORE PUSH1 0x20 PUSH1 0x0 KECCAK256 SWAP1 JUMPDEST DUP2 SLOAD DUP2 MSTORE SWAP1 PUSH1 0x1 ADD SWAP1 PUSH1 0x20 ADD DUP1 DUP4 GT PUSH2 0x14D JUMPI DUP3 SWAP1 SUB PUSH1 0x1F AND DUP3 ADD SWAP2 JUMPDEST POP POP POP POP POP SWAP1 POP SWAP2 SWAP1 POP JUMP JUMPDEST PUSH1 0x1 ISZERO ISZERO PUSH1 0x0 DUP3 PUSH1 0x40 MLOAD PUSH2 0x18A SWAP2 SWAP1 PUSH2 0x66A JUMP JUMPDEST SWAP1 DUP2 MSTORE PUSH1 0x20 ADD PUSH1 0x40 MLOAD DUP1 SWAP2 SUB SWAP1 KECCAK256 PUSH1 0x0 ADD PUSH1 0x0 SWAP1 SLOAD SWAP1 PUSH2 0x100 EXP SWAP1 DIV PUSH1 0xFF AND ISZERO ISZERO EQ PUSH2 0x1EB JUMPI PUSH1 0x40 MLOAD PUSH32 0x8C379A000000000000000000000000000000000000000000000000000000000 DUP2 MSTORE PUSH1 0x4 ADD PUSH2 0x1E2 SWAP1 PUSH2 0x72D JUMP JUMPDEST PUSH1 0x40 MLOAD DUP1 SWAP2 SUB SWAP1 REVERT JUMPDEST DUP2 PUSH1 0x0 DUP3 PUSH1 0x40 MLOAD PUSH2 0x1FC SWAP2 SWAP1 PUSH2 0x66A JUMP JUMPDEST SWAP1 DUP2 MSTORE PUSH1 0x20 ADD PUSH1 0x40 MLOAD DUP1 SWAP2 SUB SWAP1 KECCAK256 PUSH1 0x1 ADD SWAP1 DUP2 PUSH2 0x219 SWAP2 SWAP1 PUSH2 0x903 JUMP JUMPDEST POP PUSH1 0x1 PUSH1 0x0 DUP3 PUSH1 0x40 MLOAD PUSH2 0x22C SWAP2 SWAP1 PUSH2 0x66A JUMP JUMPDEST SWAP1 DUP2 MSTORE PUSH1 0x20 ADD PUSH1 0x40 MLOAD DUP1 SWAP2 SUB SWAP1 KECCAK256 PUSH1 0x0 ADD PUSH1 0x0 PUSH2 0x100 EXP DUP2 SLOAD DUP2 PUSH1 0xFF MUL NOT AND SWAP1 DUP4 ISZERO ISZERO MUL OR SWAP1 SSTORE POP POP POP JUMP JUMPDEST PUSH1 0x0 DUP2 DUP1 MLOAD PUSH1 0x20 DUP2 ADD DUP3 ADD DUP1 MLOAD DUP5 DUP3 MSTORE PUSH1 0x20 DUP4 ADD PUSH1 0x20 DUP6 ADD KECCAK256 DUP2 DUP4 MSTORE DUP1 SWAP6 POP POP POP POP POP POP PUSH1 0x0 SWAP2 POP SWAP1 POP DUP1 PUSH1 0x0 ADD PUSH1 0x0 SWAP1 SLOAD SWAP1 PUSH2 0x100 EXP SWAP1 DIV PUSH1 0xFF AND SWAP1 DUP1 PUSH1 0x1 ADD DUP1 SLOAD PUSH2 0x2A4 SWAP1 PUSH2 0x6B0 JUMP JUMPDEST DUP1 PUSH1 0x1F ADD PUSH1 0x20 DUP1 SWAP2 DIV MUL PUSH1 0x20 ADD PUSH1 0x40 MLOAD SWAP1 DUP2 ADD PUSH1 0x40 MSTORE DUP1 SWAP3 SWAP2 SWAP1 DUP2 DUP2 MSTORE PUSH1 0x20 ADD DUP3 DUP1 SLOAD PUSH2 0x2D0 SWAP1 PUSH2 0x6B0 JUMP JUMPDEST DUP1 ISZERO PUSH2 0x31D JUMPI DUP1 PUSH1 0x1F LT PUSH2 0x2F2 JUMPI PUSH2 0x100 DUP1 DUP4 SLOAD DIV MUL DUP4 MSTORE SWAP2 PUSH1 0x20 ADD SWAP2 PUSH2 0x31D JUMP JUMPDEST DUP3 ADD SWAP2 SWAP1 PUSH1 0x0 MSTORE PUSH1 0x20 PUSH1 0x0 KECCAK256 SWAP1 JUMPDEST DUP2 SLOAD DUP2 MSTORE SWAP1 PUSH1 0x1 ADD SWAP1 PUSH1 0x20 ADD DUP1 DUP4 GT PUSH2 0x300 JUMPI DUP3 SWAP1 SUB PUSH1 0x1F AND DUP3 ADD SWAP2 JUMPDEST POP POP POP POP POP SWAP1 POP DUP3 JUMP JUMPDEST PUSH1 0x0 PUSH1 0x40 MLOAD SWAP1 POP SWAP1 JUMP JUMPDEST PUSH1 0x0 DUP1 REVERT JUMPDEST PUSH1 0x0 DUP1 REVERT JUMPDEST PUSH1 0x0 DUP1 REVERT JUMPDEST PUSH1 0x0 DUP1 REVERT JUMPDEST PUSH1 0x0 PUSH1 0x1F NOT PUSH1 0x1F DUP4 ADD AND SWAP1 POP SWAP2 SWAP1 POP JUMP JUMPDEST PUSH32 0x4E487B7100000000000000000000000000000000000000000000000000000000 PUSH1 0x0 MSTORE PUSH1 0x41 PUSH1 0x4 MSTORE PUSH1 0x24 PUSH1 0x0 REVERT JUMPDEST PUSH2 0x38E DUP3 PUSH2 0x345 JUMP JUMPDEST DUP2 ADD DUP2 DUP2 LT PUSH8 0xFFFFFFFFFFFFFFFF DUP3 GT OR ISZERO PUSH2 0x3AD JUMPI PUSH2 0x3AC PUSH2 0x356 JUMP JUMPDEST JUMPDEST DUP1 PUSH1 0x40 MSTORE POP POP POP JUMP JUMPDEST PUSH1 0x0 PUSH2 0x3C0 PUSH2 0x327 JUMP JUMPDEST SWAP1 POP PUSH2 0x3CC DUP3 DUP3 PUSH2 0x385 JUMP JUMPDEST SWAP2 SWAP1 POP JUMP JUMPDEST PUSH1 0x0 PUSH8 0xFFFFFFFFFFFFFFFF DUP3 GT ISZERO PUSH2 0x3EC JUMPI PUSH2 0x3EB PUSH2 0x356 JUMP JUMPDEST JUMPDEST PUSH2 0x3F5 DUP3 PUSH2 0x345 JUMP JUMPDEST SWAP1 POP PUSH1 0x20 DUP2 ADD SWAP1 POP SWAP2 SWAP1 POP JUMP JUMPDEST DUP3 DUP2 DUP4 CALLDATACOPY PUSH1 0x0 DUP4 DUP4 ADD MSTORE POP POP POP JUMP JUMPDEST PUSH1 0x0 PUSH2 0x424 PUSH2 0x41F DUP5 PUSH2 0x3D1 JUMP JUMPDEST PUSH2 0x3B6 JUMP JUMPDEST SWAP1 POP DUP3 DUP2 MSTORE PUSH1 0x20 DUP2 ADD DUP5 DUP5 DUP5 ADD GT ISZERO PUSH2 0x440 JUMPI PUSH2 0x43F PUSH2 0x340 JUMP JUMPDEST JUMPDEST PUSH2 0x44B DUP5 DUP3 DUP6 PUSH2 0x402 JUMP JUMPDEST POP SWAP4 SWAP3 POP POP POP JUMP JUMPDEST PUSH1 0x0 DUP3 PUSH1 0x1F DUP4 ADD SLT PUSH2 0x468 JUMPI PUSH2 0x467 PUSH2 0x33B JUMP JUMPDEST JUMPDEST DUP2 CALLDATALOAD PUSH2 0x478 DUP5 DUP3 PUSH1 0x20 DUP7 ADD PUSH2 0x411 JUMP JUMPDEST SWAP2 POP POP SWAP3 SWAP2 POP POP JUMP JUMPDEST PUSH1 0x0 PUSH1 0x20 DUP3 DUP5 SUB SLT ISZERO PUSH2 0x497 JUMPI PUSH2 0x496 PUSH2 0x331 JUMP JUMPDEST JUMPDEST PUSH1 0x0 DUP3 ADD CALLDATALOAD PUSH8 0xFFFFFFFFFFFFFFFF DUP2 GT ISZERO PUSH2 0x4B5 JUMPI PUSH2 0x4B4 PUSH2 0x336 JUMP JUMPDEST JUMPDEST PUSH2 0x4C1 DUP5 DUP3 DUP6 ADD PUSH2 0x453 JUMP JUMPDEST SWAP2 POP POP SWAP3 SWAP2 POP POP JUMP JUMPDEST PUSH1 0x0 DUP2 MLOAD SWAP1 POP SWAP2 SWAP1 POP JUMP JUMPDEST PUSH1 0x0 DUP3 DUP3 MSTORE PUSH1 0x20 DUP3 ADD SWAP1 POP SWAP3 SWAP2 POP POP JUMP JUMPDEST PUSH1 0x0 JUMPDEST DUP4 DUP2 LT ISZERO PUSH2 0x504 JUMPI DUP1 DUP3 ADD MLOAD DUP2 DUP5 ADD MSTORE PUSH1 0x20 DUP2 ADD SWAP1 POP PUSH2 0x4E9 JUMP JUMPDEST PUSH1 0x0 DUP5 DUP5 ADD MSTORE POP POP POP POP JUMP JUMPDEST PUSH1 0x0 PUSH2 0x51B DUP3 PUSH2 0x4CA JUMP JUMPDEST PUSH2 0x525 DUP2 DUP6 PUSH2 0x4D5 JUMP JUMPDEST SWAP4 POP PUSH2 0x535 DUP2 DUP6 PUSH1 0x20 DUP7 ADD PUSH2 0x4E6 JUMP JUMPDEST PUSH2 0x53E DUP2 PUSH2 0x345 JUMP JUMPDEST DUP5 ADD SWAP2 POP POP SWAP3 SWAP2 POP POP JUMP JUMPDEST PUSH1 0x0 PUSH1 0x20 DUP3 ADD SWAP1 POP DUP2 DUP2 SUB PUSH1 0x0 DUP4 ADD MSTORE PUSH2 0x563 DUP2 DUP5 PUSH2 0x510 JUMP JUMPDEST SWAP1 POP SWAP3 SWAP2 POP POP JUMP JUMPDEST PUSH1 0x0 DUP1 PUSH1 0x40 DUP4 DUP6 SUB SLT ISZERO PUSH2 0x582 JUMPI PUSH2 0x581 PUSH2 0x331 JUMP JUMPDEST JUMPDEST PUSH1 0x0 DUP4 ADD CALLDATALOAD PUSH8 0xFFFFFFFFFFFFFFFF DUP2 GT ISZERO PUSH2 0x5A0 JUMPI PUSH2 0x59F PUSH2 0x336 JUMP JUMPDEST JUMPDEST PUSH2 0x5AC DUP6 DUP3 DUP7 ADD PUSH2 0x453 JUMP JUMPDEST SWAP3 POP POP PUSH1 0x20 DUP4 ADD CALLDATALOAD PUSH8 0xFFFFFFFFFFFFFFFF DUP2 GT ISZERO PUSH2 0x5CD JUMPI PUSH2 0x5CC PUSH2 0x336 JUMP JUMPDEST JUMPDEST PUSH2 0x5D9 DUP6 DUP3 DUP7 ADD PUSH2 0x453 JUMP JUMPDEST SWAP2 POP POP SWAP3 POP SWAP3 SWAP1 POP JUMP JUMPDEST PUSH1 0x0 DUP2 ISZERO ISZERO SWAP1 POP SWAP2 SWAP1 POP JUMP JUMPDEST PUSH2 0x5F8 DUP2 PUSH2 0x5E3 JUMP JUMPDEST DUP3 MSTORE POP POP JUMP JUMPDEST PUSH1 0x0 PUSH1 0x40 DUP3 ADD SWAP1 POP PUSH2 0x613 PUSH1 0x0 DUP4 ADD DUP6 PUSH2 0x5EF JUMP JUMPDEST DUP2 DUP2 SUB PUSH1 0x20 DUP4 ADD MSTORE PUSH2 0x625 DUP2 DUP5 PUSH2 0x510 JUMP JUMPDEST SWAP1 POP SWAP4 SWAP3 POP POP POP JUMP JUMPDEST PUSH1 0x0 DUP2 SWAP1 POP SWAP3 SWAP2 POP POP JUMP JUMPDEST PUSH1 0x0 PUSH2 0x644 DUP3 PUSH2 0x4CA JUMP JUMPDEST PUSH2 0x64E DUP2 DUP6 PUSH2 0x62E JUMP JUMPDEST SWAP4 POP PUSH2 0x65E DUP2 DUP6 PUSH1 0x20 DUP7 ADD PUSH2 0x4E6 JUMP JUMPDEST DUP1 DUP5 ADD SWAP2 POP POP SWAP3 SWAP2 POP POP JUMP JUMPDEST PUSH1 0x0 PUSH2 0x676 DUP3 DUP5 PUSH2 0x639 JUMP JUMPDEST SWAP2 POP DUP2 SWAP1 POP SWAP3 SWAP2 POP POP JUMP JUMPDEST PUSH32 0x4E487B7100000000000000000000000000000000000000000000000000000000 PUSH1 0x0 MSTORE PUSH1 0x22 PUSH1 0x4 MSTORE PUSH1 0x24 PUSH1 0x0 REVERT JUMPDEST PUSH1 0x0 PUSH1 0x2 DUP3 DIV SWAP1 POP PUSH1 0x1 DUP3 AND DUP1 PUSH2 0x6C8 JUMPI PUSH1 0x7F DUP3 AND SWAP2 POP JUMPDEST PUSH1 0x20 DUP3 LT DUP2 SUB PUSH2 0x6DB JUMPI PUSH2 0x6DA PUSH2 0x681 JUMP JUMPDEST JUMPDEST POP SWAP2 SWAP1 POP JUMP JUMPDEST PUSH32 0x416C72656164792053656C6C0000000000000000000000000000000000000000 PUSH1 0x0 DUP3 ADD MSTORE POP JUMP JUMPDEST PUSH1 0x0 PUSH2 0x717 PUSH1 0xC DUP4 PUSH2 0x4D5 JUMP JUMPDEST SWAP2 POP PUSH2 0x722 DUP3 PUSH2 0x6E1 JUMP JUMPDEST PUSH1 0x20 DUP3 ADD SWAP1 POP SWAP2 SWAP1 POP JUMP JUMPDEST PUSH1 0x0 PUSH1 0x20 DUP3 ADD SWAP1 POP DUP2 DUP2 SUB PUSH1 0x0 DUP4 ADD MSTORE PUSH2 0x746 DUP2 PUSH2 0x70A JUMP JUMPDEST SWAP1 POP SWAP2 SWAP1 POP JUMP JUMPDEST PUSH1 0x0 DUP2 SWAP1 POP DUP2 PUSH1 0x0 MSTORE PUSH1 0x20 PUSH1 0x0 KECCAK256 SWAP1 POP SWAP2 SWAP1 POP JUMP JUMPDEST PUSH1 0x0 PUSH1 0x20 PUSH1 0x1F DUP4 ADD DIV SWAP1 POP SWAP2 SWAP1 POP JUMP JUMPDEST PUSH1 0x0 DUP3 DUP3 SHL SWAP1 POP SWAP3 SWAP2 POP POP JUMP JUMPDEST PUSH1 0x0 PUSH1 0x8 DUP4 MUL PUSH2 0x7AF PUSH32 0xFFFFFFFFFFFFFFFFFFFFFFFFFFFFFFFFFFFFFFFFFFFFFFFFFFFFFFFFFFFFFFFF DUP3 PUSH2 0x772 JUMP JUMPDEST PUSH2 0x7B9 DUP7 DUP4 PUSH2 0x772 JUMP JUMPDEST SWAP6 POP DUP1 NOT DUP5 AND SWAP4 POP DUP1 DUP7 AND DUP5 OR SWAP3 POP POP POP SWAP4 SWAP3 POP POP POP JUMP JUMPDEST PUSH1 0x0 DUP2 SWAP1 POP SWAP2 SWAP1 POP JUMP JUMPDEST PUSH1 0x0 DUP2 SWAP1 POP SWAP2 SWAP1 POP JUMP JUMPDEST PUSH1 0x0 PUSH2 0x800 PUSH2 0x7FB PUSH2 0x7F6 DUP5 PUSH2 0x7D1 JUMP JUMPDEST PUSH2 0x7DB JUMP JUMPDEST PUSH2 0x7D1 JUMP JUMPDEST SWAP1 POP SWAP2 SWAP1 POP JUMP JUMPDEST PUSH1 0x0 DUP2 SWAP1 POP SWAP2 SWAP1 POP JUMP JUMPDEST PUSH2 0x81A DUP4 PUSH2 0x7E5 JUMP JUMPDEST PUSH2 0x82E PUSH2 0x826 DUP3 PUSH2 0x807 JUMP JUMPDEST DUP5 DUP5 SLOAD PUSH2 0x77F JUMP JUMPDEST DUP3 SSTORE POP POP POP POP JUMP JUMPDEST PUSH1 0x0 SWAP1 JUMP JUMPDEST PUSH2 0x843 PUSH2 0x836 JUMP JUMPDEST PUSH2 0x84E DUP2 DUP5 DUP5 PUSH2 0x811 JUMP JUMPDEST POP POP POP JUMP JUMPDEST JUMPDEST DUP2 DUP2 LT ISZERO PUSH2 0x872 JUMPI PUSH2 0x867 PUSH1 0x0 DUP3 PUSH2 0x83B JUMP JUMPDEST PUSH1 0x1 DUP2 ADD SWAP1 POP PUSH2 0x854 JUMP JUMPDEST POP POP JUMP JUMPDEST PUSH1 0x1F DUP3 GT ISZERO PUSH2 0x8B7 JUMPI PUSH2 0x888 DUP2 PUSH2 0x74D JUMP JUMPDEST PUSH2 0x891 DUP5 PUSH2 0x762 JUMP JUMPDEST DUP2 ADD PUSH1 0x20 DUP6 LT ISZERO PUSH2 0x8A0 JUMPI DUP2 SWAP1 POP JUMPDEST PUSH2 0x8B4 PUSH2 0x8AC DUP6 PUSH2 0x762 JUMP JUMPDEST DUP4 ADD DUP3 PUSH2 0x853 JUMP JUMPDEST POP POP JUMPDEST POP POP POP JUMP JUMPDEST PUSH1 0x0 DUP3 DUP3 SHR SWAP1 POP SWAP3 SWAP2 POP POP JUMP JUMPDEST PUSH1 0x0 PUSH2 0x8DA PUSH1 0x0 NOT DUP5 PUSH1 0x8 MUL PUSH2 0x8BC JUMP JUMPDEST NOT DUP1 DUP4 AND SWAP2 POP POP SWAP3 SWAP2 POP POP JUMP JUMPDEST PUSH1 0x0 PUSH2 0x8F3 DUP4 DUP4 PUSH2 0x8C9 JUMP JUMPDEST SWAP2 POP DUP3 PUSH1 0x2 MUL DUP3 OR SWAP1 POP SWAP3 SWAP2 POP POP JUMP JUMPDEST PUSH2 0x90C DUP3 PUSH2 0x4CA JUMP JUMPDEST PUSH8 0xFFFFFFFFFFFFFFFF DUP2 GT ISZERO PUSH2 0x925 JUMPI PUSH2 0x924 PUSH2 0x356 JUMP JUMPDEST JUMPDEST PUSH2 0x92F DUP3 SLOAD PUSH2 0x6B0 JUMP JUMPDEST PUSH2 0x93A DUP3 DUP3 DUP6 PUSH2 0x876 JUMP JUMPDEST PUSH1 0x0 PUSH1 0x20 SWAP1 POP PUSH1 0x1F DUP4 GT PUSH1 0x1 DUP2 EQ PUSH2 0x96D JUMPI PUSH1 0x0 DUP5 ISZERO PUSH2 0x95B JUMPI DUP3 DUP8 ADD MLOAD SWAP1 POP JUMPDEST PUSH2 0x965 DUP6 DUP3 PUSH2 0x8E7 JUMP JUMPDEST DUP7 SSTORE POP PUSH2 0x9CD JUMP JUMPDEST PUSH1 0x1F NOT DUP5 AND PUSH2 0x97B DUP7 PUSH2 0x74D JUMP JUMPDEST PUSH1 0x0 JUMPDEST DUP3 DUP2 LT ISZERO PUSH2 0x9A3 JUMPI DUP5 DUP10 ADD MLOAD DUP3 SSTORE PUSH1 0x1 DUP3 ADD SWAP2 POP PUSH1 0x20 DUP6 ADD SWAP5 POP PUSH1 0x20 DUP2 ADD SWAP1 POP PUSH2 0x97E JUMP JUMPDEST DUP7 DUP4 LT ISZERO PUSH2 0x9C0 JUMPI DUP5 DUP10 ADD MLOAD PUSH2 0x9BC PUSH1 0x1F DUP10 AND DUP3 PUSH2 0x8C9 JUMP JUMPDEST DUP4 SSTORE POP JUMPDEST PUSH1 0x1 PUSH1 0x2 DUP9 MUL ADD DUP9 SSTORE POP POP POP JUMPDEST POP POP POP POP POP POP JUMP INVALID LOG2 PUSH5 0x6970667358 0x22 SLT KECCAK256 PUSH13 0x1FD9615D11BBE557F8E66B2BBE 0x26 0xB9 0xC 0xE8 KECCAK256 PUSH32 0x733AD8227DD060393B3896D164736F6C63430008120033000000000000000000 "
		},
		"gasEstimates": {
			"creation": {
				"codeDepositCost": "514200",
				"executionCost": "549",
				"totalCost": "514749"
			},
			"external": {
				"buyNft(string,string)": "infinite",
				"getOwner(string)": "infinite",
				"nfts(string)": "infinite"
			}
		},
		"methodIdentifiers": {
			"buyNft(string,string)": "8ccd5ed8",
			"getOwner(string)": "4aaf4a12",
			"nfts(string)": "b66fb090"
		}
	},
	"abi": [
		{
			"inputs": [
				{
					"internalType": "string",
					"name": "_buyer",
					"type": "string"
				},
				{
					"internalType": "string",
					"name": "_nft",
					"type": "string"
				}
			],
			"name": "buyNft",
			"outputs": [],
			"stateMutability": "nonpayable",
			"type": "function"
		},
		{
			"inputs": [
				{
					"internalType": "string",
					"name": "_nftId",
					"type": "string"
				}
			],
			"name": "getOwner",
			"outputs": [
				{
					"internalType": "string",
					"name": "owner",
					"type": "string"
				}
			],
			"stateMutability": "view",
			"type": "function"
		},
		{
			"inputs": [
				{
					"internalType": "string",
					"name": "",
					"type": "string"
				}
			],
			"name": "nfts",
			"outputs": [
				{
					"internalType": "bool",
					"name": "sell",
					"type": "bool"
				},
				{
					"internalType": "string",
					"name": "owner",
					"type": "string"
				}
			],
			"stateMutability": "view",
			"type": "function"
		}
	]
}